{
  "_format": "hh-sol-artifact-1",
  "contractName": "MyNFT",
  "sourceName": "contracts/MyNFT.sol",
  "abi": [
    {
      "inputs": [],
      "stateMutability": "nonpayable",
      "type": "constructor"
    },
    {
      "anonymous": false,
      "inputs": [
        {
          "indexed": true,
          "internalType": "address",
          "name": "owner",
          "type": "address"
        },
        {
          "indexed": true,
          "internalType": "address",
          "name": "approved",
          "type": "address"
        },
        {
          "indexed": true,
          "internalType": "uint256",
          "name": "tokenId",
          "type": "uint256"
        }
      ],
      "name": "Approval",
      "type": "event"
    },
    {
      "anonymous": false,
      "inputs": [
        {
          "indexed": true,
          "internalType": "address",
          "name": "owner",
          "type": "address"
        },
        {
          "indexed": true,
          "internalType": "address",
          "name": "operator",
          "type": "address"
        },
        {
          "indexed": false,
          "internalType": "bool",
          "name": "approved",
          "type": "bool"
        }
      ],
      "name": "ApprovalForAll",
      "type": "event"
    },
    {
      "anonymous": false,
      "inputs": [
        {
          "indexed": true,
          "internalType": "address",
          "name": "from",
          "type": "address"
        },
        {
          "indexed": true,
          "internalType": "address",
          "name": "to",
          "type": "address"
        },
        {
          "indexed": true,
          "internalType": "uint256",
          "name": "tokenId",
          "type": "uint256"
        }
      ],
      "name": "Transfer",
      "type": "event"
    },
    {
      "inputs": [
        {
          "internalType": "address",
          "name": "to",
          "type": "address"
        },
        {
          "internalType": "uint256",
          "name": "tokenId",
          "type": "uint256"
        }
      ],
      "name": "approve",
      "outputs": [],
      "stateMutability": "nonpayable",
      "type": "function"
    },
    {
      "inputs": [
        {
          "internalType": "address",
          "name": "owner",
          "type": "address"
        }
      ],
      "name": "balanceOf",
      "outputs": [
        {
          "internalType": "uint256",
          "name": "",
          "type": "uint256"
        }
      ],
      "stateMutability": "view",
      "type": "function"
    },
    {
      "inputs": [],
      "name": "baseUrl",
      "outputs": [
        {
          "internalType": "string",
          "name": "",
          "type": "string"
        }
      ],
      "stateMutability": "view",
      "type": "function"
    },
    {
      "inputs": [
        {
          "internalType": "uint256",
          "name": "tokenId",
          "type": "uint256"
        }
      ],
      "name": "getApproved",
      "outputs": [
        {
          "internalType": "address",
          "name": "",
          "type": "address"
        }
      ],
      "stateMutability": "view",
      "type": "function"
    },
    {
      "inputs": [],
      "name": "getPromptDescriptions",
      "outputs": [
        {
          "internalType": "string[]",
          "name": "",
          "type": "string[]"
        }
      ],
      "stateMutability": "view",
      "type": "function"
    },
    {
      "inputs": [
        {
          "internalType": "address",
          "name": "owner",
          "type": "address"
        },
        {
          "internalType": "address",
          "name": "operator",
          "type": "address"
        }
      ],
      "name": "isApprovedForAll",
      "outputs": [
        {
          "internalType": "bool",
          "name": "",
          "type": "bool"
        }
      ],
      "stateMutability": "view",
      "type": "function"
    },
    {
      "inputs": [
        {
          "internalType": "uint256",
          "name": "quantity",
          "type": "uint256"
        }
      ],
      "name": "mint",
      "outputs": [],
      "stateMutability": "payable",
      "type": "function"
    },
    {
      "inputs": [],
      "name": "name",
      "outputs": [
        {
          "internalType": "string",
          "name": "",
          "type": "string"
        }
      ],
      "stateMutability": "view",
      "type": "function"
    },
    {
      "inputs": [],
      "name": "owner",
      "outputs": [
        {
          "internalType": "address",
          "name": "",
          "type": "address"
        }
      ],
      "stateMutability": "view",
      "type": "function"
    },
    {
      "inputs": [
        {
          "internalType": "uint256",
          "name": "tokenId",
          "type": "uint256"
        }
      ],
      "name": "ownerOf",
      "outputs": [
        {
          "internalType": "address",
          "name": "",
          "type": "address"
        }
      ],
      "stateMutability": "view",
      "type": "function"
    },
    {
      "inputs": [
        {
          "internalType": "uint256",
          "name": "",
          "type": "uint256"
        }
      ],
      "name": "promptDescription",
      "outputs": [
        {
          "internalType": "string",
          "name": "",
          "type": "string"
        }
      ],
      "stateMutability": "view",
      "type": "function"
    },
    {
      "inputs": [
        {
          "internalType": "address",
          "name": "from",
          "type": "address"
        },
        {
          "internalType": "address",
          "name": "to",
          "type": "address"
        },
        {
          "internalType": "uint256",
          "name": "tokenId",
          "type": "uint256"
        }
      ],
      "name": "safeTransferFrom",
      "outputs": [],
      "stateMutability": "nonpayable",
      "type": "function"
    },
    {
      "inputs": [
        {
          "internalType": "address",
          "name": "from",
          "type": "address"
        },
        {
          "internalType": "address",
          "name": "to",
          "type": "address"
        },
        {
          "internalType": "uint256",
          "name": "tokenId",
          "type": "uint256"
        },
        {
          "internalType": "bytes",
          "name": "data",
          "type": "bytes"
        }
      ],
      "name": "safeTransferFrom",
      "outputs": [],
      "stateMutability": "nonpayable",
      "type": "function"
    },
    {
      "inputs": [
        {
          "internalType": "address",
          "name": "operator",
          "type": "address"
        },
        {
          "internalType": "bool",
          "name": "approved",
          "type": "bool"
        }
      ],
      "name": "setApprovalForAll",
      "outputs": [],
      "stateMutability": "nonpayable",
      "type": "function"
    },
    {
      "inputs": [
        {
          "internalType": "bytes4",
          "name": "interfaceId",
          "type": "bytes4"
        }
      ],
      "name": "supportsInterface",
      "outputs": [
        {
          "internalType": "bool",
          "name": "",
          "type": "bool"
        }
      ],
      "stateMutability": "view",
      "type": "function"
    },
    {
      "inputs": [],
      "name": "symbol",
      "outputs": [
        {
          "internalType": "string",
          "name": "",
          "type": "string"
        }
      ],
      "stateMutability": "view",
      "type": "function"
    },
    {
      "inputs": [
        {
          "internalType": "uint256",
          "name": "index",
          "type": "uint256"
        }
      ],
      "name": "tokenByIndex",
      "outputs": [
        {
          "internalType": "uint256",
          "name": "",
          "type": "uint256"
        }
      ],
      "stateMutability": "view",
      "type": "function"
    },
    {
      "inputs": [
        {
          "internalType": "address",
          "name": "owner",
          "type": "address"
        },
        {
          "internalType": "uint256",
          "name": "index",
          "type": "uint256"
        }
      ],
      "name": "tokenOfOwnerByIndex",
      "outputs": [
        {
          "internalType": "uint256",
          "name": "",
          "type": "uint256"
        }
      ],
      "stateMutability": "view",
      "type": "function"
    },
    {
      "inputs": [
        {
          "internalType": "uint256",
          "name": "tokenId",
          "type": "uint256"
        }
      ],
      "name": "tokenURI",
      "outputs": [
        {
          "internalType": "string",
          "name": "",
          "type": "string"
        }
      ],
      "stateMutability": "view",
      "type": "function"
    },
    {
      "inputs": [],
      "name": "totalSupply",
      "outputs": [
        {
          "internalType": "uint256",
          "name": "",
          "type": "uint256"
        }
      ],
      "stateMutability": "view",
      "type": "function"
    },
    {
      "inputs": [
        {
          "internalType": "address",
          "name": "from",
          "type": "address"
        },
        {
          "internalType": "address",
          "name": "to",
          "type": "address"
        },
        {
          "internalType": "uint256",
          "name": "tokenId",
          "type": "uint256"
        }
      ],
      "name": "transferFrom",
      "outputs": [],
      "stateMutability": "nonpayable",
      "type": "function"
    }
  ],
  "bytecode": "0x608060405260405180610100016040528060d38152602001620048aa60d39139600c90816200002f919062000dd1565b503480156200003d57600080fd5b506040518060400160405280600581526020017f4d794e46540000000000000000000000000000000000000000000000000000008152506040518060400160405280600581526020017f4d4e4654540000000000000000000000000000000000000000000000000000008152508160009081620000bb919062000dd1565b508060019081620000cd919062000dd1565b50505033600a60006101000a81548173ffffffffffffffffffffffffffffffffffffffff021916908373ffffffffffffffffffffffffffffffffffffffff1602179055506040518060a001604052806040518060a00160405280607d815260200162004a57607d913981526020016040518060600160405280603e8152602001620049f6603e91398152602001604051806080016040528060548152602001620049a260549139815260200160405180606001604052806023815260200162004a346023913981526020016040518060600160405280602581526020016200497d60259139815250600b906005620001c792919062000a6a565b5060005b600b805490508110156200020f57620001f933600183620001ed919062000ee7565b6200021660201b60201c565b8080620002069062000f22565b915050620001cb565b506200122d565b600073ffffffffffffffffffffffffffffffffffffffff168273ffffffffffffffffffffffffffffffffffffffff160362000288576040517f08c379a00000000000000000000000000000000000000000000000000000000081526004016200027f9062000fd0565b60405180910390fd5b62000299816200045c60201b60201c565b15620002dc576040517f08c379a0000000000000000000000000000000000000000000000000000000008152600401620002d39062001042565b60405180910390fd5b620002f2600083836001620004a560201b60201c565b62000303816200045c60201b60201c565b1562000346576040517f08c379a00000000000000000000000000000000000000000000000000000000081526004016200033d9062001042565b60405180910390fd5b6001600360008473ffffffffffffffffffffffffffffffffffffffff1673ffffffffffffffffffffffffffffffffffffffff16815260200190815260200160002060008282540192505081905550816002600083815260200190815260200160002060006101000a81548173ffffffffffffffffffffffffffffffffffffffff021916908373ffffffffffffffffffffffffffffffffffffffff160217905550808273ffffffffffffffffffffffffffffffffffffffff16600073ffffffffffffffffffffffffffffffffffffffff167fddf252ad1be2c89b69c2b068fc378daa952ba7f163c4a11628f55a4df523b3ef60405160405180910390a4620004586000838360016200063960201b60201c565b5050565b60008073ffffffffffffffffffffffffffffffffffffffff1662000486836200063f60201b60201c565b73ffffffffffffffffffffffffffffffffffffffff1614159050919050565b620004be848484846200067c60201b620010361760201c565b600181111562000505576040517f08c379a0000000000000000000000000000000000000000000000000000000008152600401620004fc90620010da565b60405180910390fd5b6000829050600073ffffffffffffffffffffffffffffffffffffffff168573ffffffffffffffffffffffffffffffffffffffff1603620005565762000550816200068260201b60201c565b6200059e565b8373ffffffffffffffffffffffffffffffffffffffff168573ffffffffffffffffffffffffffffffffffffffff16146200059d576200059c8582620006cb60201b60201c565b5b5b600073ffffffffffffffffffffffffffffffffffffffff168473ffffffffffffffffffffffffffffffffffffffff1603620005ea57620005e4816200084860201b60201c565b62000632565b8473ffffffffffffffffffffffffffffffffffffffff168473ffffffffffffffffffffffffffffffffffffffff161462000631576200063084826200092460201b60201c565b5b5b5050505050565b50505050565b60006002600083815260200190815260200160002060009054906101000a900473ffffffffffffffffffffffffffffffffffffffff169050919050565b50505050565b6008805490506009600083815260200190815260200160002081905550600881908060018154018082558091505060019003906000526020600020016000909190919091505550565b60006001620006e584620009b060201b62000a5f1760201c565b620006f19190620010fc565b9050600060076000848152602001908152602001600020549050818114620007d7576000600660008673ffffffffffffffffffffffffffffffffffffffff1673ffffffffffffffffffffffffffffffffffffffff168152602001908152602001600020600084815260200190815260200160002054905080600660008773ffffffffffffffffffffffffffffffffffffffff1673ffffffffffffffffffffffffffffffffffffffff168152602001908152602001600020600084815260200190815260200160002081905550816007600083815260200190815260200160002081905550505b6007600084815260200190815260200160002060009055600660008573ffffffffffffffffffffffffffffffffffffffff1673ffffffffffffffffffffffffffffffffffffffff16815260200190815260200160002060008381526020019081526020016000206000905550505050565b600060016008805490506200085e9190620010fc565b905060006009600084815260200190815260200160002054905060006008838154811062000891576200089062001137565b5b906000526020600020015490508060088381548110620008b657620008b562001137565b5b90600052602060002001819055508160096000838152602001908152602001600020819055506009600085815260200190815260200160002060009055600880548062000908576200090762001166565b5b6001900381819060005260206000200160009055905550505050565b60006200093c83620009b060201b62000a5f1760201c565b905081600660008573ffffffffffffffffffffffffffffffffffffffff1673ffffffffffffffffffffffffffffffffffffffff168152602001908152602001600020600083815260200190815260200160002081905550806007600084815260200190815260200160002081905550505050565b60008073ffffffffffffffffffffffffffffffffffffffff168273ffffffffffffffffffffffffffffffffffffffff160362000a23576040517f08c379a000000000000000000000000000000000000000000000000000000000815260040162000a1a906200120b565b60405180910390fd5b600360008373ffffffffffffffffffffffffffffffffffffffff1673ffffffffffffffffffffffffffffffffffffffff168152602001908152602001600020549050919050565b82805482825590600052602060002090810192821562000ab7579160200282015b8281111562000ab657825182908162000aa5919062000dd1565b509160200191906001019062000a8b565b5b50905062000ac6919062000aca565b5090565b5b8082111562000aee576000818162000ae4919062000af2565b5060010162000acb565b5090565b50805462000b009062000bc0565b6000825580601f1062000b14575062000b35565b601f01602090049060005260206000209081019062000b34919062000b38565b5b50565b5b8082111562000b5357600081600090555060010162000b39565b5090565b600081519050919050565b7f4e487b7100000000000000000000000000000000000000000000000000000000600052604160045260246000fd5b7f4e487b7100000000000000000000000000000000000000000000000000000000600052602260045260246000fd5b6000600282049050600182168062000bd957607f821691505b60208210810362000bef5762000bee62000b91565b5b50919050565b60008190508160005260206000209050919050565b60006020601f8301049050919050565b600082821b905092915050565b60006008830262000c597fffffffffffffffffffffffffffffffffffffffffffffffffffffffffffffffff8262000c1a565b62000c65868362000c1a565b95508019841693508086168417925050509392505050565b6000819050919050565b6000819050919050565b600062000cb262000cac62000ca68462000c7d565b62000c87565b62000c7d565b9050919050565b6000819050919050565b62000cce8362000c91565b62000ce662000cdd8262000cb9565b84845462000c27565b825550505050565b600090565b62000cfd62000cee565b62000d0a81848462000cc3565b505050565b5b8181101562000d325762000d2660008262000cf3565b60018101905062000d10565b5050565b601f82111562000d815762000d4b8162000bf5565b62000d568462000c0a565b8101602085101562000d66578190505b62000d7e62000d758562000c0a565b83018262000d0f565b50505b505050565b600082821c905092915050565b600062000da66000198460080262000d86565b1980831691505092915050565b600062000dc1838362000d93565b9150826002028217905092915050565b62000ddc8262000b57565b67ffffffffffffffff81111562000df85762000df762000b62565b5b62000e04825462000bc0565b62000e1182828562000d36565b600060209050601f83116001811462000e49576000841562000e34578287015190505b62000e40858262000db3565b86555062000eb0565b601f19841662000e598662000bf5565b60005b8281101562000e835784890151825560018201915060208501945060208101905062000e5c565b8683101562000ea3578489015162000e9f601f89168262000d93565b8355505b6001600288020188555050505b505050505050565b7f4e487b7100000000000000000000000000000000000000000000000000000000600052601160045260246000fd5b600062000ef48262000c7d565b915062000f018362000c7d565b925082820190508082111562000f1c5762000f1b62000eb8565b5b92915050565b600062000f2f8262000c7d565b91507fffffffffffffffffffffffffffffffffffffffffffffffffffffffffffffffff820362000f645762000f6362000eb8565b5b600182019050919050565b600082825260208201905092915050565b7f4552433732313a206d696e7420746f20746865207a65726f2061646472657373600082015250565b600062000fb860208362000f6f565b915062000fc58262000f80565b602082019050919050565b6000602082019050818103600083015262000feb8162000fa9565b9050919050565b7f4552433732313a20746f6b656e20616c7265616479206d696e74656400000000600082015250565b60006200102a601c8362000f6f565b9150620010378262000ff2565b602082019050919050565b600060208201905081810360008301526200105d816200101b565b9050919050565b7f455243373231456e756d657261626c653a20636f6e736563757469766520747260008201527f616e7366657273206e6f7420737570706f727465640000000000000000000000602082015250565b6000620010c260358362000f6f565b9150620010cf8262001064565b604082019050919050565b60006020820190508181036000830152620010f581620010b3565b9050919050565b6000620011098262000c7d565b9150620011168362000c7d565b925082820390508181111562001131576200113062000eb8565b5b92915050565b7f4e487b7100000000000000000000000000000000000000000000000000000000600052603260045260246000fd5b7f4e487b7100000000000000000000000000000000000000000000000000000000600052603160045260246000fd5b7f4552433732313a2061646472657373207a65726f206973206e6f74206120766160008201527f6c6964206f776e65720000000000000000000000000000000000000000000000602082015250565b6000620011f360298362000f6f565b9150620012008262001195565b604082019050919050565b600060208201905081810360008301526200122681620011e4565b9050919050565b61366d806200123d6000396000f3fe60806040526004361061012a5760003560e01c80636352211e116100ab578063a0712d681161006f578063a0712d681461042c578063a22cb46514610448578063b88d4fde14610471578063c64601b61461049a578063c87b56dd146104c5578063e985e9c5146105025761012a565b80636352211e1461031f57806370a082311461035c5780638da5cb5b146103995780638e5a8638146103c457806395d89b41146104015761012a565b806323b872dd116100f257806323b872dd146102285780632f745c591461025157806342842e0e1461028e5780634f6ccce7146102b75780635bcabf04146102f45761012a565b806301ffc9a71461012f57806306fdde031461016c578063081812fc14610197578063095ea7b3146101d457806318160ddd146101fd575b600080fd5b34801561013b57600080fd5b50610156600480360381019061015191906123b8565b61053f565b6040516101639190612400565b60405180910390f35b34801561017857600080fd5b506101816105b9565b60405161018e91906124ab565b60405180910390f35b3480156101a357600080fd5b506101be60048036038101906101b99190612503565b61064b565b6040516101cb9190612571565b60405180910390f35b3480156101e057600080fd5b506101fb60048036038101906101f691906125b8565b610691565b005b34801561020957600080fd5b506102126107a8565b60405161021f9190612607565b60405180910390f35b34801561023457600080fd5b5061024f600480360381019061024a9190612622565b6107b5565b005b34801561025d57600080fd5b50610278600480360381019061027391906125b8565b610815565b6040516102859190612607565b60405180910390f35b34801561029a57600080fd5b506102b560048036038101906102b09190612622565b6108ba565b005b3480156102c357600080fd5b506102de60048036038101906102d99190612503565b6108da565b6040516102eb9190612607565b60405180910390f35b34801561030057600080fd5b5061030961094b565b60405161031691906124ab565b60405180910390f35b34801561032b57600080fd5b5061034660048036038101906103419190612503565b6109d9565b6040516103539190612571565b60405180910390f35b34801561036857600080fd5b50610383600480360381019061037e9190612675565b610a5f565b6040516103909190612607565b60405180910390f35b3480156103a557600080fd5b506103ae610b16565b6040516103bb9190612571565b60405180910390f35b3480156103d057600080fd5b506103eb60048036038101906103e69190612503565b610b3c565b6040516103f891906124ab565b60405180910390f35b34801561040d57600080fd5b50610416610be8565b60405161042391906124ab565b60405180910390f35b61044660048036038101906104419190612503565b610c7a565b005b34801561045457600080fd5b5061046f600480360381019061046a91906126ce565b610de9565b005b34801561047d57600080fd5b5061049860048036038101906104939190612843565b610dff565b005b3480156104a657600080fd5b506104af610e61565b6040516104bc91906129d2565b60405180910390f35b3480156104d157600080fd5b506104ec60048036038101906104e79190612503565b610f3a565b6040516104f991906124ab565b60405180910390f35b34801561050e57600080fd5b50610529600480360381019061052491906129f4565b610fa2565b6040516105369190612400565b60405180910390f35b60007f780e9d63000000000000000000000000000000000000000000000000000000007bffffffffffffffffffffffffffffffffffffffffffffffffffffffff1916827bffffffffffffffffffffffffffffffffffffffffffffffffffffffff191614806105b257506105b18261103c565b5b9050919050565b6060600080546105c890612a63565b80601f01602080910402602001604051908101604052809291908181526020018280546105f490612a63565b80156106415780601f1061061657610100808354040283529160200191610641565b820191906000526020600020905b81548152906001019060200180831161062457829003601f168201915b5050505050905090565b60006106568261111e565b6004600083815260200190815260200160002060009054906101000a900473ffffffffffffffffffffffffffffffffffffffff169050919050565b600061069c826109d9565b90508073ffffffffffffffffffffffffffffffffffffffff168373ffffffffffffffffffffffffffffffffffffffff160361070c576040517f08c379a000000000000000000000000000000000000000000000000000000000815260040161070390612b06565b60405180910390fd5b8073ffffffffffffffffffffffffffffffffffffffff1661072b611169565b73ffffffffffffffffffffffffffffffffffffffff16148061075a575061075981610754611169565b610fa2565b5b610799576040517f08c379a000000000000000000000000000000000000000000000000000000000815260040161079090612b98565b60405180910390fd5b6107a38383611171565b505050565b6000600880549050905090565b6107c66107c0611169565b8261122a565b610805576040517f08c379a00000000000000000000000000000000000000000000000000000000081526004016107fc90612c2a565b60405180910390fd5b6108108383836112bf565b505050565b600061082083610a5f565b8210610861576040517f08c379a000000000000000000000000000000000000000000000000000000000815260040161085890612cbc565b60405180910390fd5b600660008473ffffffffffffffffffffffffffffffffffffffff1673ffffffffffffffffffffffffffffffffffffffff168152602001908152602001600020600083815260200190815260200160002054905092915050565b6108d583838360405180602001604052806000815250610dff565b505050565b60006108e46107a8565b8210610925576040517f08c379a000000000000000000000000000000000000000000000000000000000815260040161091c90612d4e565b60405180910390fd5b6008828154811061093957610938612d6e565b5b90600052602060002001549050919050565b600c805461095890612a63565b80601f016020809104026020016040519081016040528092919081815260200182805461098490612a63565b80156109d15780601f106109a6576101008083540402835291602001916109d1565b820191906000526020600020905b8154815290600101906020018083116109b457829003601f168201915b505050505081565b6000806109e5836115b8565b9050600073ffffffffffffffffffffffffffffffffffffffff168173ffffffffffffffffffffffffffffffffffffffff1603610a56576040517f08c379a0000000000000000000000000000000000000000000000000000000008152600401610a4d90612de9565b60405180910390fd5b80915050919050565b60008073ffffffffffffffffffffffffffffffffffffffff168273ffffffffffffffffffffffffffffffffffffffff1603610acf576040517f08c379a0000000000000000000000000000000000000000000000000000000008152600401610ac690612e7b565b60405180910390fd5b600360008373ffffffffffffffffffffffffffffffffffffffff1673ffffffffffffffffffffffffffffffffffffffff168152602001908152602001600020549050919050565b600a60009054906101000a900473ffffffffffffffffffffffffffffffffffffffff1681565b600b8181548110610b4c57600080fd5b906000526020600020016000915090508054610b6790612a63565b80601f0160208091040260200160405190810160405280929190818152602001828054610b9390612a63565b8015610be05780601f10610bb557610100808354040283529160200191610be0565b820191906000526020600020905b815481529060010190602001808311610bc357829003601f168201915b505050505081565b606060018054610bf790612a63565b80601f0160208091040260200160405190810160405280929190818152602001828054610c2390612a63565b8015610c705780601f10610c4557610100808354040283529160200191610c70565b820191906000526020600020905b815481529060010190602001808311610c5357829003601f168201915b5050505050905090565b600a60009054906101000a900473ffffffffffffffffffffffffffffffffffffffff1673ffffffffffffffffffffffffffffffffffffffff163373ffffffffffffffffffffffffffffffffffffffff1614610d0a576040517f08c379a0000000000000000000000000000000000000000000000000000000008152600401610d0190612f0d565b60405180910390fd5b6005811115610d4e576040517f08c379a0000000000000000000000000000000000000000000000000000000008152600401610d4590612f9f565b60405180910390fd5b606481610d596107a8565b610d639190612fee565b1115610da4576040517f08c379a0000000000000000000000000000000000000000000000000000000008152600401610d9b9061306e565b60405180910390fd5b60005b81811015610de55760006001610dbb6107a8565b610dc59190612fee565b9050610dd133826115f5565b508080610ddd9061308e565b915050610da7565b5050565b610dfb610df4611169565b8383611812565b5050565b610e10610e0a611169565b8361122a565b610e4f576040517f08c379a0000000000000000000000000000000000000000000000000000000008152600401610e4690612c2a565b60405180910390fd5b610e5b8484848461197e565b50505050565b6060600b805480602002602001604051908101604052809291908181526020016000905b82821015610f31578382906000526020600020018054610ea490612a63565b80601f0160208091040260200160405190810160405280929190818152602001828054610ed090612a63565b8015610f1d5780601f10610ef257610100808354040283529160200191610f1d565b820191906000526020600020905b815481529060010190602001808311610f0057829003601f168201915b505050505081526020019060010190610e85565b50505050905090565b6060610f458261111e565b6000610f4f6119da565b90506000815111610f6f5760405180602001604052806000815250610f9a565b80610f7984611a6c565b604051602001610f8a929190613112565b6040516020818303038152906040525b915050919050565b6000600560008473ffffffffffffffffffffffffffffffffffffffff1673ffffffffffffffffffffffffffffffffffffffff16815260200190815260200160002060008373ffffffffffffffffffffffffffffffffffffffff1673ffffffffffffffffffffffffffffffffffffffff16815260200190815260200160002060009054906101000a900460ff16905092915050565b50505050565b60007f80ac58cd000000000000000000000000000000000000000000000000000000007bffffffffffffffffffffffffffffffffffffffffffffffffffffffff1916827bffffffffffffffffffffffffffffffffffffffffffffffffffffffff1916148061110757507f5b5e139f000000000000000000000000000000000000000000000000000000007bffffffffffffffffffffffffffffffffffffffffffffffffffffffff1916827bffffffffffffffffffffffffffffffffffffffffffffffffffffffff1916145b80611117575061111682611b3a565b5b9050919050565b61112781611ba4565b611166576040517f08c379a000000000000000000000000000000000000000000000000000000000815260040161115d90612de9565b60405180910390fd5b50565b600033905090565b816004600083815260200190815260200160002060006101000a81548173ffffffffffffffffffffffffffffffffffffffff021916908373ffffffffffffffffffffffffffffffffffffffff160217905550808273ffffffffffffffffffffffffffffffffffffffff166111e4836109d9565b73ffffffffffffffffffffffffffffffffffffffff167f8c5be1e5ebec7d5bd14f71427d1e84f3dd0314c0f7b2291e5b200ac8c7c3b92560405160405180910390a45050565b600080611236836109d9565b90508073ffffffffffffffffffffffffffffffffffffffff168473ffffffffffffffffffffffffffffffffffffffff16148061127857506112778185610fa2565b5b806112b657508373ffffffffffffffffffffffffffffffffffffffff1661129e8461064b565b73ffffffffffffffffffffffffffffffffffffffff16145b91505092915050565b8273ffffffffffffffffffffffffffffffffffffffff166112df826109d9565b73ffffffffffffffffffffffffffffffffffffffff1614611335576040517f08c379a000000000000000000000000000000000000000000000000000000000815260040161132c906131a8565b60405180910390fd5b600073ffffffffffffffffffffffffffffffffffffffff168273ffffffffffffffffffffffffffffffffffffffff16036113a4576040517f08c379a000000000000000000000000000000000000000000000000000000000815260040161139b9061323a565b60405180910390fd5b6113b18383836001611be5565b8273ffffffffffffffffffffffffffffffffffffffff166113d1826109d9565b73ffffffffffffffffffffffffffffffffffffffff1614611427576040517f08c379a000000000000000000000000000000000000000000000000000000000815260040161141e906131a8565b60405180910390fd5b6004600082815260200190815260200160002060006101000a81549073ffffffffffffffffffffffffffffffffffffffff02191690556001600360008573ffffffffffffffffffffffffffffffffffffffff1673ffffffffffffffffffffffffffffffffffffffff168152602001908152602001600020600082825403925050819055506001600360008473ffffffffffffffffffffffffffffffffffffffff1673ffffffffffffffffffffffffffffffffffffffff16815260200190815260200160002060008282540192505081905550816002600083815260200190815260200160002060006101000a81548173ffffffffffffffffffffffffffffffffffffffff021916908373ffffffffffffffffffffffffffffffffffffffff160217905550808273ffffffffffffffffffffffffffffffffffffffff168473ffffffffffffffffffffffffffffffffffffffff167fddf252ad1be2c89b69c2b068fc378daa952ba7f163c4a11628f55a4df523b3ef60405160405180910390a46115b38383836001611d43565b505050565b60006002600083815260200190815260200160002060009054906101000a900473ffffffffffffffffffffffffffffffffffffffff169050919050565b600073ffffffffffffffffffffffffffffffffffffffff168273ffffffffffffffffffffffffffffffffffffffff1603611664576040517f08c379a000000000000000000000000000000000000000000000000000000000815260040161165b906132a6565b60405180910390fd5b61166d81611ba4565b156116ad576040517f08c379a00000000000000000000000000000000000000000000000000000000081526004016116a490613312565b60405180910390fd5b6116bb600083836001611be5565b6116c481611ba4565b15611704576040517f08c379a00000000000000000000000000000000000000000000000000000000081526004016116fb90613312565b60405180910390fd5b6001600360008473ffffffffffffffffffffffffffffffffffffffff1673ffffffffffffffffffffffffffffffffffffffff16815260200190815260200160002060008282540192505081905550816002600083815260200190815260200160002060006101000a81548173ffffffffffffffffffffffffffffffffffffffff021916908373ffffffffffffffffffffffffffffffffffffffff160217905550808273ffffffffffffffffffffffffffffffffffffffff16600073ffffffffffffffffffffffffffffffffffffffff167fddf252ad1be2c89b69c2b068fc378daa952ba7f163c4a11628f55a4df523b3ef60405160405180910390a461180e600083836001611d43565b5050565b8173ffffffffffffffffffffffffffffffffffffffff168373ffffffffffffffffffffffffffffffffffffffff1603611880576040517f08c379a00000000000000000000000000000000000000000000000000000000081526004016118779061337e565b60405180910390fd5b80600560008573ffffffffffffffffffffffffffffffffffffffff1673ffffffffffffffffffffffffffffffffffffffff16815260200190815260200160002060008473ffffffffffffffffffffffffffffffffffffffff1673ffffffffffffffffffffffffffffffffffffffff16815260200190815260200160002060006101000a81548160ff0219169083151502179055508173ffffffffffffffffffffffffffffffffffffffff168373ffffffffffffffffffffffffffffffffffffffff167f17307eab39ab6107e8899845ad3d59bd9653f200f220920489ca2b5937696c31836040516119719190612400565b60405180910390a3505050565b6119898484846112bf565b61199584848484611d49565b6119d4576040517f08c379a00000000000000000000000000000000000000000000000000000000081526004016119cb90613410565b60405180910390fd5b50505050565b6060600c80546119e990612a63565b80601f0160208091040260200160405190810160405280929190818152602001828054611a1590612a63565b8015611a625780601f10611a3757610100808354040283529160200191611a62565b820191906000526020600020905b815481529060010190602001808311611a4557829003601f168201915b5050505050905090565b606060006001611a7b84611ed0565b01905060008167ffffffffffffffff811115611a9a57611a99612718565b5b6040519080825280601f01601f191660200182016040528015611acc5781602001600182028036833780820191505090505b509050600082602001820190505b600115611b2f578080600190039150507f3031323334353637383961626364656600000000000000000000000000000000600a86061a8153600a8581611b2357611b22613430565b5b04945060008503611ada575b819350505050919050565b60007f01ffc9a7000000000000000000000000000000000000000000000000000000007bffffffffffffffffffffffffffffffffffffffffffffffffffffffff1916827bffffffffffffffffffffffffffffffffffffffffffffffffffffffff1916149050919050565b60008073ffffffffffffffffffffffffffffffffffffffff16611bc6836115b8565b73ffffffffffffffffffffffffffffffffffffffff1614159050919050565b611bf184848484611036565b6001811115611c35576040517f08c379a0000000000000000000000000000000000000000000000000000000008152600401611c2c906134d1565b60405180910390fd5b6000829050600073ffffffffffffffffffffffffffffffffffffffff168573ffffffffffffffffffffffffffffffffffffffff1603611c7c57611c7781612023565b611cbb565b8373ffffffffffffffffffffffffffffffffffffffff168573ffffffffffffffffffffffffffffffffffffffff1614611cba57611cb9858261206c565b5b5b600073ffffffffffffffffffffffffffffffffffffffff168473ffffffffffffffffffffffffffffffffffffffff1603611cfd57611cf8816121d9565b611d3c565b8473ffffffffffffffffffffffffffffffffffffffff168473ffffffffffffffffffffffffffffffffffffffff1614611d3b57611d3a84826122aa565b5b5b5050505050565b50505050565b6000611d6a8473ffffffffffffffffffffffffffffffffffffffff16612329565b15611ec3578373ffffffffffffffffffffffffffffffffffffffff1663150b7a02611d93611169565b8786866040518563ffffffff1660e01b8152600401611db59493929190613546565b6020604051808303816000875af1925050508015611df157506040513d601f19601f82011682018060405250810190611dee91906135a7565b60015b611e73573d8060008114611e21576040519150601f19603f3d011682016040523d82523d6000602084013e611e26565b606091505b506000815103611e6b576040517f08c379a0000000000000000000000000000000000000000000000000000000008152600401611e6290613410565b60405180910390fd5b805181602001fd5b63150b7a0260e01b7bffffffffffffffffffffffffffffffffffffffffffffffffffffffff1916817bffffffffffffffffffffffffffffffffffffffffffffffffffffffff191614915050611ec8565b600190505b949350505050565b600080600090507a184f03e93ff9f4daa797ed6e38ed64bf6a1f0100000000000000008310611f2e577a184f03e93ff9f4daa797ed6e38ed64bf6a1f0100000000000000008381611f2457611f23613430565b5b0492506040810190505b6d04ee2d6d415b85acef81000000008310611f6b576d04ee2d6d415b85acef81000000008381611f6157611f60613430565b5b0492506020810190505b662386f26fc100008310611f9a57662386f26fc100008381611f9057611f8f613430565b5b0492506010810190505b6305f5e1008310611fc3576305f5e1008381611fb957611fb8613430565b5b0492506008810190505b6127108310611fe8576127108381611fde57611fdd613430565b5b0492506004810190505b6064831061200b576064838161200157612000613430565b5b0492506002810190505b600a831061201a576001810190505b80915050919050565b6008805490506009600083815260200190815260200160002081905550600881908060018154018082558091505060019003906000526020600020016000909190919091505550565b6000600161207984610a5f565b61208391906135d4565b9050600060076000848152602001908152602001600020549050818114612168576000600660008673ffffffffffffffffffffffffffffffffffffffff1673ffffffffffffffffffffffffffffffffffffffff168152602001908152602001600020600084815260200190815260200160002054905080600660008773ffffffffffffffffffffffffffffffffffffffff1673ffffffffffffffffffffffffffffffffffffffff168152602001908152602001600020600084815260200190815260200160002081905550816007600083815260200190815260200160002081905550505b6007600084815260200190815260200160002060009055600660008573ffffffffffffffffffffffffffffffffffffffff1673ffffffffffffffffffffffffffffffffffffffff16815260200190815260200160002060008381526020019081526020016000206000905550505050565b600060016008805490506121ed91906135d4565b905060006009600084815260200190815260200160002054905060006008838154811061221d5761221c612d6e565b5b90600052602060002001549050806008838154811061223f5761223e612d6e565b5b90600052602060002001819055508160096000838152602001908152602001600020819055506009600085815260200190815260200160002060009055600880548061228e5761228d613608565b5b6001900381819060005260206000200160009055905550505050565b60006122b583610a5f565b905081600660008573ffffffffffffffffffffffffffffffffffffffff1673ffffffffffffffffffffffffffffffffffffffff168152602001908152602001600020600083815260200190815260200160002081905550806007600084815260200190815260200160002081905550505050565b6000808273ffffffffffffffffffffffffffffffffffffffff163b119050919050565b6000604051905090565b600080fd5b600080fd5b60007fffffffff0000000000000000000000000000000000000000000000000000000082169050919050565b61239581612360565b81146123a057600080fd5b50565b6000813590506123b28161238c565b92915050565b6000602082840312156123ce576123cd612356565b5b60006123dc848285016123a3565b91505092915050565b60008115159050919050565b6123fa816123e5565b82525050565b600060208201905061241560008301846123f1565b92915050565b600081519050919050565b600082825260208201905092915050565b60005b8381101561245557808201518184015260208101905061243a565b60008484015250505050565b6000601f19601f8301169050919050565b600061247d8261241b565b6124878185612426565b9350612497818560208601612437565b6124a081612461565b840191505092915050565b600060208201905081810360008301526124c58184612472565b905092915050565b6000819050919050565b6124e0816124cd565b81146124eb57600080fd5b50565b6000813590506124fd816124d7565b92915050565b60006020828403121561251957612518612356565b5b6000612527848285016124ee565b91505092915050565b600073ffffffffffffffffffffffffffffffffffffffff82169050919050565b600061255b82612530565b9050919050565b61256b81612550565b82525050565b60006020820190506125866000830184612562565b92915050565b61259581612550565b81146125a057600080fd5b50565b6000813590506125b28161258c565b92915050565b600080604083850312156125cf576125ce612356565b5b60006125dd858286016125a3565b92505060206125ee858286016124ee565b9150509250929050565b612601816124cd565b82525050565b600060208201905061261c60008301846125f8565b92915050565b60008060006060848603121561263b5761263a612356565b5b6000612649868287016125a3565b935050602061265a868287016125a3565b925050604061266b868287016124ee565b9150509250925092565b60006020828403121561268b5761268a612356565b5b6000612699848285016125a3565b91505092915050565b6126ab816123e5565b81146126b657600080fd5b50565b6000813590506126c8816126a2565b92915050565b600080604083850312156126e5576126e4612356565b5b60006126f3858286016125a3565b9250506020612704858286016126b9565b9150509250929050565b600080fd5b600080fd5b7f4e487b7100000000000000000000000000000000000000000000000000000000600052604160045260246000fd5b61275082612461565b810181811067ffffffffffffffff8211171561276f5761276e612718565b5b80604052505050565b600061278261234c565b905061278e8282612747565b919050565b600067ffffffffffffffff8211156127ae576127ad612718565b5b6127b782612461565b9050602081019050919050565b82818337600083830152505050565b60006127e66127e184612793565b612778565b90508281526020810184848401111561280257612801612713565b5b61280d8482856127c4565b509392505050565b600082601f83011261282a5761282961270e565b5b813561283a8482602086016127d3565b91505092915050565b6000806000806080858703121561285d5761285c612356565b5b600061286b878288016125a3565b945050602061287c878288016125a3565b935050604061288d878288016124ee565b925050606085013567ffffffffffffffff8111156128ae576128ad61235b565b5b6128ba87828801612815565b91505092959194509250565b600081519050919050565b600082825260208201905092915050565b6000819050602082019050919050565b600082825260208201905092915050565b600061290e8261241b565b61291881856128f2565b9350612928818560208601612437565b61293181612461565b840191505092915050565b60006129488383612903565b905092915050565b6000602082019050919050565b6000612968826128c6565b61297281856128d1565b935083602082028501612984856128e2565b8060005b858110156129c057848403895281516129a1858261293c565b94506129ac83612950565b925060208a01995050600181019050612988565b50829750879550505050505092915050565b600060208201905081810360008301526129ec818461295d565b905092915050565b60008060408385031215612a0b57612a0a612356565b5b6000612a19858286016125a3565b9250506020612a2a858286016125a3565b9150509250929050565b7f4e487b7100000000000000000000000000000000000000000000000000000000600052602260045260246000fd5b60006002820490506001821680612a7b57607f821691505b602082108103612a8e57612a8d612a34565b5b50919050565b7f4552433732313a20617070726f76616c20746f2063757272656e74206f776e6560008201527f7200000000000000000000000000000000000000000000000000000000000000602082015250565b6000612af0602183612426565b9150612afb82612a94565b604082019050919050565b60006020820190508181036000830152612b1f81612ae3565b9050919050565b7f4552433732313a20617070726f76652063616c6c6572206973206e6f7420746f60008201527f6b656e206f776e6572206f7220617070726f76656420666f7220616c6c000000602082015250565b6000612b82603d83612426565b9150612b8d82612b26565b604082019050919050565b60006020820190508181036000830152612bb181612b75565b9050919050565b7f4552433732313a2063616c6c6572206973206e6f7420746f6b656e206f776e6560008201527f72206f7220617070726f76656400000000000000000000000000000000000000602082015250565b6000612c14602d83612426565b9150612c1f82612bb8565b604082019050919050565b60006020820190508181036000830152612c4381612c07565b9050919050565b7f455243373231456e756d657261626c653a206f776e657220696e646578206f7560008201527f74206f6620626f756e6473000000000000000000000000000000000000000000602082015250565b6000612ca6602b83612426565b9150612cb182612c4a565b604082019050919050565b60006020820190508181036000830152612cd581612c99565b9050919050565b7f455243373231456e756d657261626c653a20676c6f62616c20696e646578206f60008201527f7574206f6620626f756e64730000000000000000000000000000000000000000602082015250565b6000612d38602c83612426565b9150612d4382612cdc565b604082019050919050565b60006020820190508181036000830152612d6781612d2b565b9050919050565b7f4e487b7100000000000000000000000000000000000000000000000000000000600052603260045260246000fd5b7f4552433732313a20696e76616c696420746f6b656e2049440000000000000000600082015250565b6000612dd3601883612426565b9150612dde82612d9d565b602082019050919050565b60006020820190508181036000830152612e0281612dc6565b9050919050565b7f4552433732313a2061646472657373207a65726f206973206e6f74206120766160008201527f6c6964206f776e65720000000000000000000000000000000000000000000000602082015250565b6000612e65602983612426565b9150612e7082612e09565b604082019050919050565b60006020820190508181036000830152612e9481612e58565b9050919050565b7f4f6e6c7920746865206f776e65722063616e20706572666f726d20746869732060008201527f616374696f6e2100000000000000000000000000000000000000000000000000602082015250565b6000612ef7602783612426565b9150612f0282612e9b565b604082019050919050565b60006020820190508181036000830152612f2681612eea565b9050919050565b7f596f752063616e206f6e6c79206d696e7420757020746f2035204e465473206160008201527f7420612074696d65000000000000000000000000000000000000000000000000602082015250565b6000612f89602883612426565b9150612f9482612f2d565b604082019050919050565b60006020820190508181036000830152612fb881612f7c565b9050919050565b7f4e487b7100000000000000000000000000000000000000000000000000000000600052601160045260246000fd5b6000612ff9826124cd565b9150613004836124cd565b925082820190508082111561301c5761301b612fbf565b5b92915050565b7f4d6178696d756d204e465420737570706c792072656163686564000000000000600082015250565b6000613058601a83612426565b915061306382613022565b602082019050919050565b600060208201905081810360008301526130878161304b565b9050919050565b6000613099826124cd565b91507fffffffffffffffffffffffffffffffffffffffffffffffffffffffffffffffff82036130cb576130ca612fbf565b5b600182019050919050565b600081905092915050565b60006130ec8261241b565b6130f681856130d6565b9350613106818560208601612437565b80840191505092915050565b600061311e82856130e1565b915061312a82846130e1565b91508190509392505050565b7f4552433732313a207472616e736665722066726f6d20696e636f72726563742060008201527f6f776e6572000000000000000000000000000000000000000000000000000000602082015250565b6000613192602583612426565b915061319d82613136565b604082019050919050565b600060208201905081810360008301526131c181613185565b9050919050565b7f4552433732313a207472616e7366657220746f20746865207a65726f2061646460008201527f7265737300000000000000000000000000000000000000000000000000000000602082015250565b6000613224602483612426565b915061322f826131c8565b604082019050919050565b6000602082019050818103600083015261325381613217565b9050919050565b7f4552433732313a206d696e7420746f20746865207a65726f2061646472657373600082015250565b6000613290602083612426565b915061329b8261325a565b602082019050919050565b600060208201905081810360008301526132bf81613283565b9050919050565b7f4552433732313a20746f6b656e20616c7265616479206d696e74656400000000600082015250565b60006132fc601c83612426565b9150613307826132c6565b602082019050919050565b6000602082019050818103600083015261332b816132ef565b9050919050565b7f4552433732313a20617070726f766520746f2063616c6c657200000000000000600082015250565b6000613368601983612426565b915061337382613332565b602082019050919050565b600060208201905081810360008301526133978161335b565b9050919050565b7f4552433732313a207472616e7366657220746f206e6f6e20455243373231526560008201527f63656976657220696d706c656d656e7465720000000000000000000000000000602082015250565b60006133fa603283612426565b91506134058261339e565b604082019050919050565b60006020820190508181036000830152613429816133ed565b9050919050565b7f4e487b7100000000000000000000000000000000000000000000000000000000600052601260045260246000fd5b7f455243373231456e756d657261626c653a20636f6e736563757469766520747260008201527f616e7366657273206e6f7420737570706f727465640000000000000000000000602082015250565b60006134bb603583612426565b91506134c68261345f565b604082019050919050565b600060208201905081810360008301526134ea816134ae565b9050919050565b600081519050919050565b600082825260208201905092915050565b6000613518826134f1565b61352281856134fc565b9350613532818560208601612437565b61353b81612461565b840191505092915050565b600060808201905061355b6000830187612562565b6135686020830186612562565b61357560408301856125f8565b8181036060830152613587818461350d565b905095945050505050565b6000815190506135a18161238c565b92915050565b6000602082840312156135bd576135bc612356565b5b60006135cb84828501613592565b91505092915050565b60006135df826124cd565b91506135ea836124cd565b925082820390508181111561360257613601612fbf565b5b92915050565b7f4e487b7100000000000000000000000000000000000000000000000000000000600052603160045260246000fdfea2646970667358221220fc616141e84b621726cfbc35aa637c09d2c3c5cf4e654c9f73365d962409507f64736f6c6343000812003368747470733a2f2f6f72616e67652d776f6e64657266756c2d636174736861726b2d3736362e6d7970696e6174612e636c6f75642f697066732f516d5a6f3775773466717a34314854724c667369385253386239634b58664b7a38573751566f53477032414138532f3f5f676c3d312a687139336f762a5f67612a4e446b304e5459314d6a4d304c6a45324f44677a4f44457a4e7a452e2a5f67615f35524d505847313454452a4d5459354d44637a4d4463344e4334304c6a45754d5459354d44637a4d6a55794f5334324d4334774c6a412e6f6b61796265617220776974682073756e676c617373657320696e2074686520776f6f6473436f6f6c206d6f746f726379636c6973742077697468207370616365207375697420726964696e67206f6e206d6f6f6e20776974682073746f726d20616e642067616c61787920696e206261636b67726f756e644120736869626120646f676520706c6179696e6720656c65637472696320677569746172206f6e20746f70206f6620546865204265726c696e2057616c6c4d6f6e6b657920776974682073756e676c617373657320696e2074686520776f6f6473686f75736520617420746865206d6964646c65206f6620746865206f6365616e207769746820616e2065787472656d656c79206c75787572696f757320676c61737320616e642070617374656c2077616c6c65642076696c6c6120737572726f756e64696e6720612068756765206a756e676c65206174206e69676874",
  "linkReferences": {},
  "deployedLinkReferences": {}
}